:060000000A128A11142906
:100200008A010A140F3982073F3406345B344F34B5
:1002100066346D347D3407347F346F3477347C3406
:1002200039345E347934713453214C213D21031328
:10023000831208080021870006182F21861836210E
:100240000B1D1C294821850A050808028030031966
:10025000FF30031C0130890009188501192906188F
:100260002F29880A080800218700080086183629E7
:1002700088030808002187000800031383168112F1
:100280008111011581140110031383124821080004
:100290000C3081000B110800031383160F138F1607
:1002A0000F120F1408000317831688018901031326
:1002B0008316F030850087018901F0308800033013
:1002C00086000313831285018701880189010800D4
:04400E00C430FF3F7C
:00000001FF
